:100000000C9446000C9465000C9465000C946500FB
:100010000C9465000C9465000C9465000C946500CC
:100020000C9465000C9465000C9465000C946500BC
:100030000C9465000C9465000C9465000C946500AC
:100040000C9465000C9465000C9465000C9465009C
:100050000C9465000C9465000C9465000C9465008C
:100060000C9465000C9465000C9465000C9465007C
:100070000C9465000C9465000C94B5010C9411026D
:100080000C9465000C9465000C94650011241FBE4F
:10009000CFEFD0E1DEBFCDBF11E0A0E0B1E0E2EFF5
:1000A000F5E000E00BBF02C007900D92A430B1074D
:1000B000D9F723E0A4E0B1E001C01D92AB3DB20747
:1000C000E1F70E94F2020C94F7020C940000F894FD
:1000D0000E949200789408950C946700F8940E940E
:1000E00092000E94B1010E94B20178940895F894A0
:1000F0000E9492000E94B3010E94B2017894089578
:10010000F8940E9492000E94B401789408958FB7E9
:10011000881F8827881F0895F89418BA15BA12BA4C
:100120000C9467008FEF8ABB1BBA87BB88BB9FE02C
:1001300094BB20EF25BB11BA82BB22B993B91092B0
:10014000610010926200809364001092650008952F
:10015000883068F448B321E030E0B90102C0660F8E
:10016000771F8A95E2F7CB018095842388BB089599
:10017000883060F448B321E030E0B90102C0660F76
:10018000771F8A95E2F7CB01842B88BB08958830CE
:1001900060F448B321E030E0B90102C0660F771F78
:1001A0008A95E2F7CB01842788BB0895809588BBA8
:1001B00008958FEF88BB089518BA0895883060F4C9
:1001C00020B330E0A90102C0559547958A95E2F722
:1001D000CA0180958170089580E0089580B380956C
:1001E000089580B38F3F39F08FE39CE90197F1F7D1
:1001F00000C00000F6CF80B38F3F39F48FE39CE955
:100200000197F1F700C00000F6CF9FEF20E782E0F2
:10021000915020408040E1F700C00000089590E038
:10022000981771F0292F209528BB2FEF39E648E168
:10023000215030404040E1F700C000009F5FF0CF08
:1002400008950F931F93CF93DF93182FD0E00FEFF4
:10025000D11799F0C0E008BB8C2F0E94A8002FEFA7
:1002600083EC99E0215080409040E1F700C000000D
:10027000CF5FC83081F7DF5FEBCFDF91CF911F9168
:100280000F9108950F931F93CF93DF93082FD0E022
:100290001FEFD01721F1C0E018BB8C2F0E94A800DF
:1002A0002FEF82E597E0215080409040E1F700C0B9
:1002B0000000CF5FC83081F7C7E018BBC1508C2F5A
:1002C0000E94A8002FEF82E597E0215080409040E7
:1002D000E1F700C00000C111F0CFDF5FDACFDF919E
:1002E000CF911F910F910895CF93DF93C0E0DFEF7F
:1002F000D8BB8C2F0E94A8002FEF85EA9EE02150EA
:1003000080409040E1F700C00000CF5FC83081F727
:100310008FEF88BBDF91CF91089580B388BB88238E
:1003200051F02FEF80E792E0215080409040E1F7BC
:1003300000C00000F2CF8FEF88BB0895FC019191BF
:10034000992339F080919B0085FFFCCF90939C000E
:10035000F6CF089590919B0095FFFCCF80939C0071
:10036000089508950895089508951F920F920FB665
:100370000F9211240BB60F922F933F934F935F93DD
:100380006F937F938F939F93AF93BF93EF93FF935D
:1003900080919C008D3011F08A3071F480911A03A5
:1003A000882361F1E0911A03F0E0E55EFC4F1082D2
:1003B00081E08093190322C0883011F08F3771F4E7
:1003C00080911A038823D1F080911A038150809381
:1003D0001A0380E091E00E949E0110C090911A03E0
:1003E0009F3360F4E0911A0391E09E0F90931A03FB
:1003F000F0E0E55EFC4F80830E94AA01FF91EF913F
:10040000BF91AF919F918F917F916F915F914F912C
:100410003F912F910F900BBE0F900FBE0F901F902A
:1004200018951F920F920FB60F9211240BB60F92D0
:100430008F939F93EF93FF939091180380911703ED
:10044000981779F0E0911703F0E0E55AFC4F8081AE
:1004500080939C00809117038F5F8F7780931703A1
:1004600007C080919A008F7D80939A0010921603A6
:10047000FF91EF919F918F910F900BBE0F900FBE48
:100480000F901F901895DC012D912223A9F09091D7
:1004900018039F5F9F7780911703981304C0809182
:1004A00016038111F8CFE0911803F0E0E55AFC4FF4
:1004B000208390931803E8CF80911603811108C020
:1004C00081E08093160380919A00806280939A0065
:1004D0000895CF93DF93FC01EC5FFE4F20813181C3
:1004E0002F3F310531F028F0329621E0208380E063
:1004F00017C0DC01B3952D913C911197EC01C20F0F
:10050000D31F68838D919C9111970196992711961D
:100510009C938E938081918101969183808381E069
:10052000DF91CF910895CF93DF93FC01EC5FFE4FF5
:1005300020813181232BD9F0DC01AE5FBE4F2D919C
:100540003C911197EC01C20FD31F8881EB01888386
:100550008D919C9111970196992711969C938E935A
:100560008081918101979183808381E001C080E047
:10057000DF91CF9108958C5F9E4FFC018081918126
:1005800008958C5F9E4FFC012081318180E091E0D5
:10059000821B930B0895FC01EC5FFE4F11821082C9
:1005A0003297118210823297118210823696108211
:1005B00008950FEF07BB0AEA08BB2FEF87EA91E621
:1005C000215080409040E1F700C0000005E508BBE5
:1005D0002FEF83ED90E3215080409040E1F700C081
:1005E0000000E9CF0E94D90280E090E00895F894DD
:0205F000FFCF3B
:0405F20020080000DD
:00000001FF
