:100000000C9446000C94A2000C94C4000C9465005F
:100010000C9465000C9465000C9465000C946500CC
:100020000C9465000C9465000C94FD000C94650024
:100030000C9465000C9465000C9465000C946500AC
:100040000C9465000C9465000C9492010C9465006E
:100050000C9465000C947F000C9465000C94650072
:100060000C9465000C9465000C9465000C9465007C
:100070000C9465000C9465000C947B010C94650055
:100080000C9465000C9465000C94650011241FBE4F
:10009000CFEFD0E1DEBFCDBF11E0A0E0B1E0E6E5FB
:1000A000F3E000E00BBF02C007900D92A830B1074B
:1000B000D9F721E0A8E0B1E001C01D92A532B20756
:1000C000E1F70E9467000C94A9010C9400000E94C3
:1000D0009D008FEF88BB2FEF39E698E1215030402B
:1000E0009040E1F700C0000018BA2FEF39E698E120
:1000F000215030409040E1F700C00000EBCF1F924C
:100100000F920FB60F9211242F938F939F9324B1C8
:1001100085B190E0982F8827820F911D90930A0156
:100120008093090181E0809308019F918F912F9125
:100130000F900FBE0F901F901895F8940E94E70043
:10014000789408951F920F920FB60F9211248F93F7
:100150009F9380911001909111010196909311014C
:100160008093100180910C0190910D010196909364
:100170000D0180930C0110920B019F918F910F90B4
:100180000FBE0F901F9018951F920F920FB60F92EF
:1001900011248F939F9380910E0190910F010196EE
:1001A00090930F0180930E0180910C0190910D01AD
:1001B000019690930D0180930C0181E080930B01D7
:1001C0009F918F910F900FBE0F901F9018958FEFFA
:1001D0008ABB1BBA87BB88BB9FE094BB20EF25BBC3
:1001E00011BA82BB22B993B91092610010926200D9
:1001F000809364001092650008951F920F920FB6CD
:100200000F9211242F933F938F939F93AF93BF939C
:100210008091000184BD8091160190911701A091F9
:100220001801B09119010196A11DB11D809316010D
:1002300090931701A0931801B093190180912001A8
:1002400090912101019690932101809320012091AA
:10025000200130912101809105019091060128171C
:10026000390750F081E090E090931F0180931E01C8
:10027000109221011092200180911401909115019A
:100280000196909315018093140120910301309100
:1002900004018217930750F081E090E090931D01D4
:1002A00080931C011092150110921401809112018B
:1002B0009091130101969093130180931201209164
:1002C0000101309102018217930750F081E090E024
:1002D00090931B0180931A01109213011092120146
:1002E000BF91AF919F918F913F912F910F900FBE32
:1002F0000F901F9018951F920F920FB60F92112416
:100300008F9380919C008093230181E08093220150
:1003100080912301809324018F910F900FBE0F9045
:100320001F9018951F920F920FB60F9211248F9362
:10033000CF93DF931F92CDB7DEB78CB189838981CC
:100340000F90DF91CF918F910F900FBE0F901F9064
:060350001895F894FFCFA0
:0803560006E8036400F4010055
:00000001FF
