:1000000045C0000061C000005FC000005DC000008E
:100010005BC0000059C0000057C0000055C0000080
:1000200053C0000051C000004FC000004DC0000090
:100030004BC0000049C0000047C0000045C00000A0
:1000400043C0000041C000003FC000003DC00000B0
:100050003BC0000039C0000037C0000035C00000C0
:1000600033C0000031C000002FC000002DC00000D0
:100070002BC0000029C0000027C0000025C00000E0
:1000800023C0000021C000001FC0000011241FBEBB
:10009000CFEFD0E1DEBFCDBF14E0A0E0B1E0E2E5FC
:1000A000F8E100E00BBF02C007900D92A034B10749
:1000B000D9F728E0A0E4B4E001C01D92A434B2074F
:1000C000E1F703D00C94270C9BCF0E94760A4CD208
:1000D00042EF52E060E080E057D447E053E060E058
:1000E00081E052D440E051E060E082E04DD44CE148
:1000F00053E060E086E048D42FEF83ED90E3215099
:1001000080409040E1F700C000002ED24DE253E065
:1001100060E080E039D4E5D410E0D12FD695D695B3
:10012000D695C0E003C0CF5FC03869F08C2F8695AC
:10013000869586958D0F80FFF6CF6C2F812FCCD4BE
:10014000CF5FC03899F71F5F103439F72FEF87E979
:100150009AE3215080409040E1F700C0000004D2B3
:1001600047E453E060E080E00FD4C1E06AE08C2F08
:1001700081D48FEFBAD1CF5FC830C1F7C1E06AE553
:100180008C2F78D48FEFC6D1CF5FC830C1F747E549
:1001900053E060E086E0F8D32FEF87E99AE321503F
:1001A00080409040E1F700C00000DED145E753E019
:1001B00060E080E0E9D32EE142E365E08AE09CD490
:1001C00026E448E268E785E097D426E448E268E25E
:1001D00084E134D548E06FE584E151D560E086E004
:1001E000BAD282ED94E0CDD62FEF87E99AE3215081
:1001F00080409040E1F700C00000B6D140E953E0F4
:1002000060E080E0C1D3C0E02C2F40E060E480E2F9
:1002100073D42C2F4FE360E480E26ED4C85FC03803
:1002200099F72FEF87E99AE3215080409040E1F75A
:1002300000C0000099D140EA53E060E080E0A4D320
:10024000C5E024E82C1B44E44C1B6FE06C0F8C2FA2
:10025000F5D4CC5FC532A9F72FEF87E99AE3215097
:1002600080409040E1F700C000007ED142EB53E0B7
:1002700060E080E089D3C6E04C2F60E480E2FFD4E8
:10028000CB5FCF31C9F72FEF87E99AE32150804048
:100290009040E1F700C0000067D145EC53E060E01A
:1002A00080E072D3C0E02C2F4FE36C2F81E024D488
:1002B000C85FC038C1F7C1E02FE74C2F60E08C2F3A
:1002C0001BD4C85FC134C1F72FEF8DE399E42150EF
:1002D00080409040E1F700C0000046D148ED53E077
:1002E00060E080E051D343EE53E060E081E04CD326
:1002F00045EF53E06AE082E047D3C3E060E08C2F33
:100300002AD24AE054E060E08C2F3ED3CF5FC73062
:10031000A9F741E254E06AE083E036D34FE254E0CB
:100320006AE084E031D340E051E06AE085E02CD31C
:1003300045E151E065E086E027D32FEF8DE399E4B6
:10034000215080409040E1F700C00000FFCF982F7F
:10035000969596959695877020E8873029F0E82F36
:10036000F0E0E75CFB4F208180E8989FF0011124CA
:10037000E05CFB4FE60FF11D8081822B8083985457
:100380009BBB1C981E9A1F9A95E09A95F1F7000066
:100390001D9A8AE08A95F1F700C01D9887EC90E0DD
:1003A0000197F1F700C00000603458F5605C6BBB4A
:1003B0001C981E981F9A95E09A95F1F700001D9AD7
:1003C0008AE08A95F1F700C01D9887EC90E00197CC
:1003D000F1F700C0000080818BBB1C9A1E981F9A09
:1003E00095E09A95F1F700001D9A8AE08A95F1F759
:1003F00000C01D9887EC90E00197F1F700C0000065
:1004000008956BBB1C981E9A1F9895E09A95F1F77A
:1004100000001D9A8AE08A95F1F700C01D9887ECCC
:1004200090E00197F1F700C0000080818BBB1C9A1F
:100430001E9A1F98D5CFD09AD19AD29AD39AD49A8D
:10044000D59AD69AD79A149A159A169A179A1C98EA
:100450001D981E981F981BBA2FEF80E792E021503D
:1004600080409040E1F700C0000008958BBB1C98CD
:100470001E981F9A85E08A95F1F700001D9A9AE070
:100480009A95F1F700C01D9887EC90E00197F1F77D
:1004900000C0000008958BBB1C981E9A1F9885E031
:1004A0008A95F1F700001D9A9AE09A95F1F700C03D
:1004B0001D9887EC90E00197F1F700C000000895C7
:1004C0008BBB1C981E9A1F9A85E08A95F1F7000055
:1004D0001D9A9AE09A95F1F700C01D9887EC90E07C
:1004E0000197F1F700C0000008958BBB1C9A1E987D
:1004F0001F9A85E08A95F1F700001D9A9AE09A9577
:10050000F1F700C01D9887EC90E00197F1F700C06B
:10051000000008958BBB1C9A1E9A1F9885E08A954F
:10052000F1F700001D9A9AE09A95F1F700C01D9826
:1005300087EC90E00197F1F700C0000008958BBBB5
:100540001C9A1E9A1F9A85E08A95F1F700001D9A61
:100550009AE09A95F1F700C01D9887EC90E001971A
:10056000F1F700C00000089598EB20E49BBB1C98B5
:100570001E9A1F9A35E03A95F1F700001D9A8AE01D
:100580008A95F1F700C01D98E7ECF0E03197F1F79C
:1005900000C00000E7ECF0E03197F1F700C0000088
:1005A0002BBB1C981E9A1F9AF5E0FA95F1F70000F4
:1005B0001D9A3AE03A95F1F700C01D98E7ECF0E09B
:1005C0003197F1F700C00000E7ECF0E03197F1F768
:1005D00000C0000080E41BBA1C9A1E9A1F9AF5E026
:1005E000FA95F1F700001D9A3AE03A95F1F700C04C
:1005F0001D98E7ECF0E03197F1F700C00000F5E35B
:10060000FA95F1F70000815031F79F5F903C09F0B7
:10061000ADCF8FE39CE90197F1F700C0000008958A
:100620000ADF2FEF81EE94E0215080409040E1F707
:1006300000C000008EE38BBB1C981E9A1F9A25E019
:100640002A95F1F700001D9A8AE08A95F1F700C01B
:100650001D9887EC90E00197F1F700C000008FE350
:100660009CE90197F1F700C000008FE38BBB1C9859
:100670001E9A1F9A95E09A95F1F700001D9A2AE0BC
:100680002A95F1F700C01D9887EC90E00197F1F7EB
:1006900000C000008FE39CE90197F1F700C0000063
:1006A00080EC8BBB1C981E9A1F9A95E09A95F1F7E7
:1006B00000001D9A2AE02A95F1F700C01D9887ECEA
:1006C00090E00197F1F700C000008FE19EE40197F0
:1006D000F1F700C0000088EB8BBB1C981E9A1F9A94
:1006E00095E09A95F1F700001D9A2AE02A95F1F716
:1006F00000C01D9887EC90E00197F1F700C0000062
:100700008FE19EE40197F1F700C0000080E48BBB0D
:100710001C981E9A1F9A95E09A95F1F700001D9A71
:100720002AE02A95F1F700C01D9887EC90E0019728
:10073000F1F700C000008FE39CE90197F1F700C0DA
:1007400000009FEF20E782E0915020408040E1F7D9
:1007500000C00000089580934108609340088854C9
:100760008BBB1C981E9A1F9A85E08A95F1F70000B2
:100770001D9A9AE09A95F1F700C01D9887EC90E0D9
:100780000197F1F700C0000090914008892F880F71
:10079000890F880F9A30B0F48C5B8BBB1C981E9825
:1007A0001F9A95E09A95F1F700001D9A8AE08A95C4
:1007B000F1F700C01D9887EC90E00197F1F700C0B9
:1007C000000008958C5F8BBB1C981E9A1F98E9CF80
:1007D0008052990B9C01220F331F220F331FF90106
:1007E000E80FF91FE95EFE4F4081509140084BBB76
:1007F0001C9A5A3008F4A6C01E9A1F9845E04A95E4
:10080000F1F700001D9AEAE0EA95F1F700C01D98A3
:10081000E7ECF0E03197F1F700C00000F901E80FD4
:10082000F91FE95EFE4F4181509140084BBB1C9A75
:100830005A3008F4A6C01E9A1F98F5E0FA95F1F711
:1008400000001D9A4AE04A95F1F700C01D98E7ECB8
:10085000F0E03197F1F700C00000F901E80FF91F4F
:10086000E95EFE4F4281509140084BBB1C9A5A30C2
:1008700008F484C01E9A1F98F5E0FA95F1F700007D
:100880001D9A4AE04A95F1F700C01D98E7ECF0E0A8
:100890003197F1F700C00000F901E80FF91FE95E98
:1008A000FE4F4381509140084BBB1C9A5A3008F4CC
:1008B00062C01E9A1F98F5E0FA95F1F700001D9AA4
:1008C0004AE04A95F1F700C01D98E7ECF0E0319757
:1008D000F1F700C00000280F391FF901E95EFE4F53
:1008E0008481909140088BBB1C9A9A30C8F51E9861
:1008F0001F9AF5E0FA95F1F700001D9A4AE04A9533
:10090000F1F700C01D9887EC90E00197F1F700C067
:100910000000809140081BBA1C9A8A30F0F41E989F
:100920001F9A95E09A95F1F700001D9AEAE0EA9582
:10093000F1F700C01D9887EC90E00197F1F700C037
:10094000000008951E981F9AF5E0FA95F1F700004F
:100950001D9A4AE04A95F1F759CF1E9A1F98E1CFA8
:100960001E9A1F9895E09A95F1F700001D9AEAE00B
:10097000EA95F1F7C6CF1E981F9A9DCF1E981F9A31
:100980007BCF1E981F9A59CF1F93CF93DF93EA0115
:10099000809341086093400888548BBB1C981E9A32
:1009A0001F9A85E08A95F1F700001D9A9AE09A95C2
:1009B000F1F700C01D9887EC90E00197F1F700C0B7
:1009C000000090914008892F880F890F880F9A3076
:1009D00008F04AC08C5B8BBB1C981E981F9A95E050
:1009E0009A95F1F700001D9A8AE08A95F1F700C008
:1009F0001D9887EC90E00197F1F700C00000888116
:100A0000811571F19091400810E40AC0E1DE219651
:100A1000909140089F5F909340088881811501F173
:100A20009A30A1F71BBB1C981E9A1F9895E09A95C7
:100A3000F1F700001D9A8AE08A95F1F700C01D9831
:100A400087EC90E00197F1F700C000008991C0DECB
:100A5000909140089F5F9093400888818111E0CF7A
:100A6000DF91CF911F9108958C5F8BBB1C981E9ACC
:100A70001F98B5CF88548BBB1C981E9A1F9A85E08F
:100A80008A95F1F700001D9A9AE09A95F1F700C057
:100A90001D9887EC90E00197F1F700C000006034EA
:100AA000B0F4605C6BBB1C981E981F9A95E09A95F9
:100AB000F1F700001D9A8AE08A95F1F700C01D98B1
:100AC00087EC90E00197F1F700C0000008956BBB40
:100AD0001C981E9A1F98EACF803410F467FF37CC19
:100AE0000895E0E4F4E080E094E0DF019C011D92D1
:100AF00021503040E1F708959F92AF92BF92CF927C
:100B0000DF92EF92FF920F931F93CF93DF93982E74
:100B1000162F621709F44BC0C62FD0E0A22EB12CBD
:100B2000621750F5AC16BD06DCF06501CC1ADD0A83
:100B3000842F8919990B7C0100E010E0C801B601EF
:100B40005FD6CB01890D911D803420F4C7FD02C012
:100B50006C2FFDDB21960E0D1F1DAC16BD0674F724
:100B6000DF91CF911F910F91FF90EF90DF90CF9089
:100B7000BF90AF909F9008956501CC1ADD0A841B49
:100B8000990B7C0100E010E0C801B60139D6CB0119
:100B9000890D911D803420F4C7FD02C06C2FD7DB76
:100BA00021970E0D1F1DCA15DB0574F7D9CF8417C9
:100BB00099F1C82FD0E0E42EF12C8417C0F4EC1684
:100BC000FD0674F25701AC1ABD0AC12CD12CC034F9
:100BD00048F4C601B50114D6912F690F67FD02C014
:100BE0008C2FB5DB2196EC16FD068CF7B9CF57019B
:100BF000AC1ABD0AC12CD12CC03448F4C601B501D1
:100C0000FFD5812F680F67FD02C08C2FA0DB2197D5
:100C1000CE15DF058CF7A4CF90E4891708F0A0CF9C
:100C200067FD9ECFDF91CF911F910F91FF90EF90C5
:100C3000DF90CF90BF90AF909F9089CBCF93DF9301
:100C400000D000D0CDB7DEB789836A834B832C8375
:100C5000482F52DF2C814B816A81842F4DDF2A81FE
:100C60004B81622F898148DF2C814B81622F8981E2
:100C70000F900F900F900F90DF91CF913DCF4F923B
:100C80005F926F927F928F929F92AF92BF92CF921C
:100C9000DF92EF92FF920F931F93CF93DF93982EE3
:100CA000862E70E0242F30E0C901880F991F820F33
:100CB000931F9C0197FF02C02D5F3F4F35952795ED
:100CC0003595279566247724621A730AEB01C21BB7
:100CD000D30B5C01B594A794B594A7946B01CA0C8F
:100CE000DB1C449F700111248E01061B170B10C0E2
:100CF000C7FD08C06C2F2BDB80E4581618F4642D58
:100D0000852D25DB21960F5F1F4FCC16DD063CF1AC
:100D1000009FC001019F900D900D1124B701681B29
:100D2000790B872F880F880B982F78D407D520E070
:100D300030E040E05FE3E0D343D44C2E862F890DB2
:100D4000592C561A8034A0F290E45916D8F6C7FFF1
:100D5000D6CF21960F5F1F4FCC16DD06CCF6E301F0
:100D6000C90DD11D8501090D111DBC2E90E4C917B7
:100D700018F5669CC001679C900D900D1124B70179
:100D8000681B790B872F880F880B982F47D4D6D4F0
:100D900020E030E040E05FE3AFD312D4862F880D2F
:100DA000A82CA61A87FD03C0682F8C2FD0DAA7FCC9
:100DB00003C06A2D8B2DCBDA21968FEF681A780A43
:100DC0000C171D0794F6DF91CF911F910F91FF90A3
:100DD000EF90DF90CF90BF90AF909F908F907F90DB
:100DE0006F905F904F900895CF939DEC899F912DC8
:100DF0001124969596959695292F220F220F290F4B
:100E0000220F982F921BC92FC62B29F480E2E0DC19
:100E10008C2FCF91089580E3890FDADCC1E08C2F0D
:100E2000CF910895CF93C9E28C9FC12D1124C29513
:100E3000CF7094E6C99F80191124C82F8A3098F486
:100E400080E2C6DC8DECC89F812D112486958695A5
:100E50008695982F990F990F890F880FC81B8C2F93
:100E6000805DCF91B5CC8DECC89F812D11248695E6
:100E700086958695805DACDCE5CF1F93CF93DF939D
:100E800000D000D0CDB7DEB7AC019C0136952795D8
:100E90003695279536952795A5ECB0E2A2D4929584
:100EA00082958F7089279F70892768EE73E0869FEF
:100EB0009001879F300D969F300D1124421B530BDC
:100EC0009A013695279536952795ABE7B4E189D4F5
:100ED000BC017695679524E6269FC001279F900D5B
:100EE00011249A01281B390B822F8F70922F929513
:100EF0009F70980F832F8F70980F832F82958F701C
:100F0000980F4DEC949F412D1124842F8695869542
:100F10004C77840F981B291B3109EDECFCEC2E9FBC
:100F2000A0012F9F500D3E9F500D11244B835C83D9
:100F300025E030E040FF20E0A901490F511D498321
:100F40005A838B819C81969587958B839C831B818B
:100F5000611107C080E23CDC111106C080E238DC80
:100F600006C080E3860F34DC8B81805D31DC8981B3
:100F7000805D0F900F900F900F90DF91CF911F9198
:100F800027CCFF920F931F93CF93DF9300D000D015
:100F90000F92CDB7DEB7FC019C01329522952F70E0
:100FA00023273F702327A7E4B3E01BD496958795AA
:100FB000969587959695879540E157E2849F900195
:100FC000859F300D949F300D1124E21BF30B9F0180
:100FD000369527953695279536952795A5ECB0E259
:100FE00000D4AC01529542954F7045275F7045275C
:100FF00028EE33E0429FC001439F900D529F900D19
:101000001124E81BF90B9F013695279536952795F6
:10101000ABE7B4E1E6D39C01369527952C833D835D
:1010200024E66C817D81269FC001279F900D1124AD
:10103000E81BF90BFC808E2F8F709E2F92959F706E
:10104000980F8F2F8F70980F8F2F82958F70980F1A
:101050008DEC989F812D1124682F669566958C776D
:10106000860F981B9F01291B3109EDECFCEC2E9F8C
:1010700080012F9F100D3E9F100D112425E030E0C0
:1010800000FF20E0B901690F711D69837A8316950D
:1010900007950B8341110CC080E29ADBF1100BC065
:1010A00080E296DB7B81711109C080E291DB09C08F
:1010B00080E3840F8DDB8C81805D8ADB80E3800F91
:1010C00087DB8981805D0F900F900F900F900F90BC
:1010D000DF91CF911F910F91FF907ACB8FEF8ABB59
:1010E0001BBA87BB88BB9FE094BB20EF25BB11BA1E
:1010F00082BB22B993B91092610010926200809372
:101100006400109265000895883048F498B321E097
:1011100001C0220F8A95EAF72095292328BB08955C
:10112000883040F498B321E001C0220F8A95EAF795
:10113000922B98BB0895883040F498B321E001C009
:10114000220F8A95EAF7922798BB0895809588BB6D
:1011500008958FEF88BB089518BA0895883010F06D
:1011600080E0089520B330E002C0359527958A9538
:10117000E2F72095822F8170089580B380950895BD
:1011800006C08FE39CE90197F1F700C0000080B32F
:101190008F3FB9F780B38F3F49F48FE39CE9019704
:1011A000F1F700C0000080B38F3FB9F39FEF20E755
:1011B00082E0915020408040E1F700C00000089597
:1011C000811579F080959FEF98BB2FEF39E648E1C4
:1011D000215030404040E1F700C000009150891399
:1011E000F3CF0895811509F45DC020E09FEF98BB0F
:1011F000C0983FEF43EC59E0315040405040E1F798
:1012000000C0000098BBC1983FEF43EC59E031505B
:1012100040405040E1F700C0000098BBC2983FEF4B
:1012200043EC59E0315040405040E1F700C000002D
:1012300098BBC3983FEF43EC59E0315040405040D9
:10124000E1F700C0000098BBC4983FEF43EC59E0C1
:10125000315040405040E1F700C0000098BBC598B5
:101260003FEF43EC59E0315040405040E1F700C0BF
:10127000000098BBC6983FEF43EC59E03150404026
:101280005040E1F700C0000098BBC7983FEF43EC27
:1012900059E0315040405040E1F700C000002F5F5E
:1012A0008213A5CF0895811509F4AAC020E09FEF0D
:1012B00098BBC0983FEF42E557E031504040504066
:1012C000E1F700C0000098BBC1983FEF42E557E04E
:1012D000315040405040E1F700C0000098BBC29838
:1012E0003FEF42E557E0315040405040E1F700C049
:1012F000000098BBC3983FEF42E557E031504040B3
:101300005040E1F700C0000098BBC4983FEF42E5B1
:1013100057E0315040405040E1F700C0000098BB1A
:10132000C5983FEF42E557E0315040405040E1F76B
:1013300000C0000098BBC6983FEF42E557E031502F
:1013400040405040E1F700C0000098BBC7983FEF15
:1013500042E557E0315040405040E1F700C0000006
:1013600098BBC6983FEF42E557E0315040405040AF
:10137000E1F700C0000098BBC5983FEF42E557E099
:10138000315040405040E1F700C0000098BBC49885
:101390003FEF42E557E0315040405040E1F700C098
:1013A000000098BBC3983FEF42E557E03150404002
:1013B0005040E1F700C0000098BBC2983FEF42E503
:1013C00057E0315040405040E1F700C0000098BB6A
:1013D000C1983FEF42E557E0315040405040E1F7BF
:1013E00000C0000098BBC0983FEF42E557E0315085
:1013F00040405040E1F700C000002F5F821358CFFB
:1014000008958FEF88BBC0982FEF35EA9EE02150FA
:1014100030409040E1F700C0000088BBC1982FEF3A
:1014200035EA9EE0215030409040E1F700C00000D6
:1014300088BBC2982FEF35EA9EE0215030409040A3
:10144000E1F700C0000088BBC3982FEF35EA9EE0AB
:10145000215030409040E1F700C0000088BBC498A4
:101460002FEF35EA9EE0215030409040E1F700C078
:10147000000088BBC5982FEF35EA9EE02150304030
:101480009040E1F700C0000088BBC6982FEF35EA16
:101490009EE0215030409040E1F700C0000088BB42
:1014A000C7982FEF35EA9EE0215030409040E1F799
:1014B00000C0000088BB089509C02FEF80E792E0CC
:1014C000215080409040E1F700C0000080B388BB0D
:1014D0008111F3CF8FEF88BB0895F894FFDD7894E6
:1014E00008958FB787FB882780F90895F894F6DD73
:1014F00097D8789408955058BB27AA270ED0E0C0FB
:10150000D1D030F0D6D020F031F49F3F11F41EF44A
:10151000C6C00EF4E095E7FBBCC0E92FE2D080F333
:10152000BA17620773078407950718F071F49EF5E0
:10153000FAC00EF4E0950B2EBA2FA02D0B01B901C5
:1015400090010C01CA01A0011124FF27591B99F039
:10155000593F50F4503E68F11A16F040A22F232F45
:10156000342F4427585FF3CF469537952795A79595
:10157000F0405395C9F77EF41F16BA0B620B730B3C
:10158000840BBAF09150A1F0FF0FBB1F661F771FAD
:10159000881FC2F70EC0BA0F621F731F841F48F462
:1015A000879577956795B795F7959E3F08F0B3CFE8
:1015B0009395880F08F09927EE0F979587950895D2
:1015C00098D088F09F5790F0B92F9927B751A0F085
:1015D000D1F0660F771F881F991F1AF0BA95C9F7C7
:1015E00012C0B13081F09FD0B1E008959CC0672F48
:1015F000782F8827B85F39F0B93FCCF38695779577
:101600006795B395D9F73EF490958095709561955F
:101610007F4F8F4F9F4F0895E89409C097FB3EF48A
:1016200090958095709561957F4F8F4F9F4F99232F
:10163000A9F0F92F96E9BB279395F69587957795AD
:101640006795B795F111F8CFFAF4BB0F11F460FF6D
:101650001BC06F5F7F4F8F4F9F4F16C0882311F0C5
:1016600096E911C0772321F09EE8872F762F05C0D9
:10167000662371F096E8862F70E060E02AF09A9574
:10168000660F771F881FDAF7880F9695879597F969
:10169000089597F99F6780E870E060E008959FEFF4
:1016A00080EC089500240A941616170618060906F9
:1016B000089500240A9412161306140605060895C8
:1016C000092E0394000C11F4882352F0BB0F40F450
:1016D000BF2B11F460FF04C06F5F7F4F8F4F9F4F90
:1016E000089557FD9058440F551F59F05F3F71F012
:1016F0004795880F97FB991F61F09F3F79F0879579
:101700000895121613061406551FF2CF4695F1DF01
:1017100008C0161617061806991FF1CF8695710591
:10172000610508940895E894BB2766277727CB01C5
:1017300097F9089511F40EF4B2CF3EC0DADFD0F37A
:101740009923D9F3CEF39F57550B87FF43D000243D
:10175000A0E640EA900180585695979528F4805C61
:10176000660F771F881F20F026173707480730F4C9
:10177000621B730B840B202931294A2BA6951794E1
:101780000794202531254A2758F7660F771F881FB1
:1017900020F026173707480730F4620B730B840BD1
:1017A000200D311D411DA09581F7B901842F91585D
:1017B000880F9695879508959F3F31F0915020F4BA
:1017C000879577956795B795880F911D969587951D
:1017D00097F9089591505040660F771F881FD2F7F0
:1017E0000895A29FB001B39FC001A39F700D811DFA
:1017F0001124911DB29F700D811D1124911D08951A
:1018000097FB072E16F4009406D077FD08D00BD076
:1018100007FC05D03EF4909581959F4F08957095F3
:1018200061957F4F0895AA1BBB1B51E107C0AA1FFA
:10183000BB1FA617B70710F0A61BB70B881F991F71
:101840005A95A9F780959095BC01CD010895F8941B
:02185000FFCFC8
:10185200232425262728292A2B2C2D2E2F303132DE
:1018620033343536004F00000000000000004F0006
:10187200000007000700147F147F14242A7F2A1215
:101882002313086462364955225000050300000004
:101892001C2241000041221C0014083E08140808C2
:1018A2003E08080050300000080808080800606080
:1018B200000020100804023E5149453E00427F408C
:1018C2000042615149462141454B311814127F10A3
:1018D20027454545393C4A494930017109050336D6
:1018E20049494936064949291E0036360000005644
:1018F200360000081422410014141414140041226A
:1019020014080201510906324979413E7E11111132
:101912007E7F494949363E414141227F4141221C55
:101922007F494949417F090909013E4149497A7F75
:101932000808087F00417F41002040413F017F08A5
:101942001422417F404040407F020C027F7F040806
:10195200107F3E4141413E7F090909063E41512126
:101962005E7F09192946264949493201017F010151
:101972003F4040403F1F2040201F3F4038403F63D0
:101982001408146307087008076151494543007F32
:1019920041410002040810200041417F000402017D
:1019A20002044040404040000102040020545454CC
:1019B200787F484444383844444420384444487F7B
:1019C2003854545418087E0901020C5252523E7F78
:1019D2000804047800047D00002040443D007F108C
:1019E20028440000417F40007C0418047C7C0804E9
:1019F200047838444444387C141414080814141825
:101A02007C7C080404084854545420043F44402079
:101A12003C4040207C1C2040201C3C4030403C4448
:101A2200281028440C5050503C4464544C44000844
:101A32003641000000770000004136080008040823
:101A420010083D3D3D3D3D3D3D3D3D3D3D3D3D3D26
:101A52003D3D3D3D3D3D0020202041546D65676187
:101A620031323820474C434420202000534F433327
:101A7200303530204772617068696373005069784D
:101A8200656C73202620427566666572202843685D
:101A920065636B65722900506167652041646472F9
:101AA200657373696E67004353313A207920302E93
:101AB2002E36332020204353323A20792036342EDA
:101AC2002E313237005072696D6974697665733AE6
:101AD200206C696E652F726563742F63697263008F
:101AE200526164696174696E67204C696E65730046
:101AF2004E65737465642052656374616E676C65CC
:101B02007300436F6E63656E74726963204369721A
:101B1200636C6573004772696420283878382073D3
:101B2200706163696E67290054657874205061673B
:101B32006573004C6566742070616E656C20283098
:101B42002E2E39290052696768742070616E656CA7
:101B5200202831302E2E31392900593A20302031B7
:101B620020322033203420352036203720382039C7
:101B72000048656C6C6F2C205269676874210053B1
:101B8200796D626F6C733A200001020408102040E4
:00000001FF
